{
	"SmartWallet.sol": {
		"SmartWallet": {
			"abi": [
				{
					"inputs": [],
					"name": "BadRequest",
					"type": "error"
				},
				{
					"inputs": [
						{
							"internalType": "uint256",
							"name": "requestAmount",
							"type": "uint256"
						},
						{
							"internalType": "uint256",
							"name": "balance",
							"type": "uint256"
						}
					],
					"name": "NotSufficientBalance",
					"type": "error"
				},
				{
					"inputs": [],
					"name": "TransactionFailed",
					"type": "error"
				},
				{
					"anonymous": false,
					"inputs": [
						{
							"indexed": true,
							"internalType": "address",
							"name": "account",
							"type": "address"
						},
						{
							"indexed": false,
							"internalType": "uint256",
							"name": "amount",
							"type": "uint256"
						}
					],
					"name": "UserDepositedToAccount",
					"type": "event"
				},
				{
					"anonymous": false,
					"inputs": [
						{
							"indexed": true,
							"internalType": "address",
							"name": "sender",
							"type": "address"
						},
						{
							"indexed": true,
							"internalType": "address",
							"name": "recipient",
							"type": "address"
						},
						{
							"indexed": false,
							"internalType": "uint256",
							"name": "amount",
							"type": "uint256"
						}
					],
					"name": "UserTransferedFunds",
					"type": "event"
				},
				{
					"anonymous": false,
					"inputs": [
						{
							"indexed": true,
							"internalType": "address",
							"name": "account",
							"type": "address"
						},
						{
							"indexed": false,
							"internalType": "uint256",
							"name": "amount",
							"type": "uint256"
						}
					],
					"name": "UserWithdrawedFromAccount",
					"type": "event"
				},
				{
					"stateMutability": "payable",
					"type": "fallback"
				},
				{
					"inputs": [],
					"name": "depositToAccount",
					"outputs": [],
					"stateMutability": "payable",
					"type": "function"
				},
				{
					"inputs": [],
					"name": "getBalance",
					"outputs": [
						{
							"internalType": "uint256",
							"name": "",
							"type": "uint256"
						}
					],
					"stateMutability": "view",
					"type": "function"
				},
				{
					"inputs": [
						{
							"internalType": "uint256",
							"name": "_amount",
							"type": "uint256"
						},
						{
							"internalType": "address",
							"name": "_recipient",
							"type": "address"
						}
					],
					"name": "transferFunds",
					"outputs": [],
					"stateMutability": "nonpayable",
					"type": "function"
				},
				{
					"inputs": [
						{
							"internalType": "uint256",
							"name": "_amount",
							"type": "uint256"
						}
					],
					"name": "withdrawFromAccount",
					"outputs": [],
					"stateMutability": "nonpayable",
					"type": "function"
				}
			],
			"devdoc": {
				"kind": "dev",
				"methods": {},
				"version": 1
			},
			"evm": {
				"assembly": "    /* \"SmartWallet.sol\":172:2337  contract SmartWallet {... */\n  mstore(0x40, 0x80)\n  callvalue\n  dup1\n  iszero\n  tag_1\n  jumpi\n  0x00\n  dup1\n  revert\ntag_1:\n  pop\n  dataSize(sub_0)\n  dup1\n  dataOffset(sub_0)\n  0x00\n  codecopy\n  0x00\n  return\nstop\n\nsub_0: assembly {\n        /* \"SmartWallet.sol\":172:2337  contract SmartWallet {... */\n      mstore(0x40, 0x80)\n      jumpi(tag_1, lt(calldatasize, 0x04))\n      shr(0xe0, calldataload(0x00))\n      dup1\n      0x12065fe0\n      eq\n      tag_3\n      jumpi\n      dup1\n      0x4792b098\n      eq\n      tag_4\n      jumpi\n      dup1\n      0x720409d9\n      eq\n      tag_5\n      jumpi\n      dup1\n      0xf08e362f\n      eq\n      tag_6\n      jumpi\n      jump(tag_2)\n    tag_1:\n    tag_2:\n        /* \"SmartWallet.sol\":818:830  BadRequest() */\n      mload(0x40)\n      0x41cc6b2100000000000000000000000000000000000000000000000000000000\n      dup2\n      mstore\n      0x04\n      add\n      mload(0x40)\n      dup1\n      swap2\n      sub\n      swap1\n      revert\n        /* \"SmartWallet.sol\":2232:2335  function getBalance() public view returns(uint256) {... */\n    tag_3:\n      callvalue\n      dup1\n      iszero\n      tag_9\n      jumpi\n      0x00\n      dup1\n      revert\n    tag_9:\n      pop\n      tag_10\n      tag_11\n      jump\t// in\n    tag_10:\n      mload(0x40)\n      tag_12\n      swap2\n      swap1\n      tag_13\n      jump\t// in\n    tag_12:\n      mload(0x40)\n      dup1\n      swap2\n      sub\n      swap1\n      return\n        /* \"SmartWallet.sol\":1172:1610  function withdrawFromAccount(uint256 _amount) public checkSufficientBalance(_amount) {... */\n    tag_4:\n      callvalue\n      dup1\n      iszero\n      tag_14\n      jumpi\n      0x00\n      dup1\n      revert\n    tag_14:\n      pop\n      tag_15\n      0x04\n      dup1\n      calldatasize\n      sub\n      dup2\n      add\n      swap1\n      tag_16\n      swap2\n      swap1\n      tag_17\n      jump\t// in\n    tag_16:\n      tag_18\n      jump\t// in\n    tag_15:\n      stop\n        /* \"SmartWallet.sol\":843:1166  function depositToAccount() public payable {... */\n    tag_5:\n      tag_19\n      tag_20\n      jump\t// in\n    tag_19:\n      stop\n        /* \"SmartWallet.sol\":1616:2226  function transferFunds(uint256 _amount, address _recipient) public checkSufficientBalance(_amount) {... */\n    tag_6:\n      callvalue\n      dup1\n      iszero\n      tag_21\n      jumpi\n      0x00\n      dup1\n      revert\n    tag_21:\n      pop\n      tag_22\n      0x04\n      dup1\n      calldatasize\n      sub\n      dup2\n      add\n      swap1\n      tag_23\n      swap2\n      swap1\n      tag_24\n      jump\t// in\n    tag_23:\n      tag_25\n      jump\t// in\n    tag_22:\n      stop\n        /* \"SmartWallet.sol\":2232:2335  function getBalance() public view returns(uint256) {... */\n    tag_11:\n        /* \"SmartWallet.sol\":2274:2281  uint256 */\n      0x00\n        /* \"SmartWallet.sol\":2300:2308  Accounts */\n      dup1\n        /* \"SmartWallet.sol\":2300:2320  Accounts[msg.sender] */\n      0x00\n        /* \"SmartWallet.sol\":2309:2319  msg.sender */\n      caller\n        /* \"SmartWallet.sol\":2300:2320  Accounts[msg.sender] */\n      0xffffffffffffffffffffffffffffffffffffffff\n      and\n      0xffffffffffffffffffffffffffffffffffffffff\n      and\n      dup2\n      mstore\n      0x20\n      add\n      swap1\n      dup2\n      mstore\n      0x20\n      add\n      0x00\n      keccak256\n        /* \"SmartWallet.sol\":2300:2328  Accounts[msg.sender].balance */\n      0x00\n      add\n      sload\n        /* \"SmartWallet.sol\":2293:2328  return Accounts[msg.sender].balance */\n      swap1\n      pop\n        /* \"SmartWallet.sol\":2232:2335  function getBalance() public view returns(uint256) {... */\n      swap1\n      jump\t// out\n        /* \"SmartWallet.sol\":1172:1610  function withdrawFromAccount(uint256 _amount) public checkSufficientBalance(_amount) {... */\n    tag_18:\n        /* \"SmartWallet.sol\":1248:1255  _amount */\n      dup1\n        /* \"SmartWallet.sol\":606:628  uint256 accountBalance */\n      0x00\n        /* \"SmartWallet.sol\":631:639  Accounts */\n      dup1\n        /* \"SmartWallet.sol\":631:651  Accounts[msg.sender] */\n      0x00\n        /* \"SmartWallet.sol\":640:650  msg.sender */\n      caller\n        /* \"SmartWallet.sol\":631:651  Accounts[msg.sender] */\n      0xffffffffffffffffffffffffffffffffffffffff\n      and\n      0xffffffffffffffffffffffffffffffffffffffff\n      and\n      dup2\n      mstore\n      0x20\n      add\n      swap1\n      dup2\n      mstore\n      0x20\n      add\n      0x00\n      keccak256\n        /* \"SmartWallet.sol\":631:659  Accounts[msg.sender].balance */\n      0x00\n      add\n      sload\n        /* \"SmartWallet.sol\":606:659  uint256 accountBalance = Accounts[msg.sender].balance */\n      swap1\n      pop\n        /* \"SmartWallet.sol\":681:695  accountBalance */\n      dup1\n        /* \"SmartWallet.sol\":671:678  _amount */\n      dup3\n        /* \"SmartWallet.sol\":671:695  _amount > accountBalance */\n      gt\n        /* \"SmartWallet.sol\":668:749  if(_amount > accountBalance) revert NotSufficientBalance(_amount, accountBalance) */\n      iszero\n      tag_28\n      jumpi\n        /* \"SmartWallet.sol\":725:732  _amount */\n      dup2\n        /* \"SmartWallet.sol\":734:748  accountBalance */\n      dup2\n        /* \"SmartWallet.sol\":704:749  NotSufficientBalance(_amount, accountBalance) */\n      mload(0x40)\n      0x1b4d8e6200000000000000000000000000000000000000000000000000000000\n      dup2\n      mstore\n      0x04\n      add\n      tag_29\n      swap3\n      swap2\n      swap1\n      tag_30\n      jump\t// in\n    tag_29:\n      mload(0x40)\n      dup1\n      swap2\n      sub\n      swap1\n      revert\n        /* \"SmartWallet.sol\":668:749  if(_amount > accountBalance) revert NotSufficientBalance(_amount, accountBalance) */\n    tag_28:\n        /* \"SmartWallet.sol\":1267:1290  uint256 startingBalance */\n      0x00\n        /* \"SmartWallet.sol\":1293:1301  Accounts */\n      dup1\n        /* \"SmartWallet.sol\":1293:1313  Accounts[msg.sender] */\n      0x00\n        /* \"SmartWallet.sol\":1302:1312  msg.sender */\n      caller\n        /* \"SmartWallet.sol\":1293:1313  Accounts[msg.sender] */\n      0xffffffffffffffffffffffffffffffffffffffff\n      and\n      0xffffffffffffffffffffffffffffffffffffffff\n      and\n      dup2\n      mstore\n      0x20\n      add\n      swap1\n      dup2\n      mstore\n      0x20\n      add\n      0x00\n      keccak256\n        /* \"SmartWallet.sol\":1293:1321  Accounts[msg.sender].balance */\n      0x00\n      add\n      sload\n        /* \"SmartWallet.sol\":1267:1321  uint256 startingBalance = Accounts[msg.sender].balance */\n      swap1\n      pop\n        /* \"SmartWallet.sol\":1364:1371  _amount */\n      dup4\n        /* \"SmartWallet.sol\":1332:1340  Accounts */\n      0x00\n        /* \"SmartWallet.sol\":1332:1352  Accounts[msg.sender] */\n      dup1\n        /* \"SmartWallet.sol\":1341:1351  msg.sender */\n      caller\n        /* \"SmartWallet.sol\":1332:1352  Accounts[msg.sender] */\n      0xffffffffffffffffffffffffffffffffffffffff\n      and\n      0xffffffffffffffffffffffffffffffffffffffff\n      and\n      dup2\n      mstore\n      0x20\n      add\n      swap1\n      dup2\n      mstore\n      0x20\n      add\n      0x00\n      keccak256\n        /* \"SmartWallet.sol\":1332:1360  Accounts[msg.sender].balance */\n      0x00\n      add\n      0x00\n        /* \"SmartWallet.sol\":1332:1371  Accounts[msg.sender].balance -= _amount */\n      dup3\n      dup3\n      sload\n      tag_32\n      swap2\n      swap1\n      tag_33\n      jump\t// in\n    tag_32:\n      swap3\n      pop\n      pop\n      dup2\n      swap1\n      sstore\n      pop\n        /* \"SmartWallet.sol\":1394:1404  msg.sender */\n      caller\n        /* \"SmartWallet.sol\":1386:1410  payable(msg.sender).send */\n      0xffffffffffffffffffffffffffffffffffffffff\n      and\n        /* \"SmartWallet.sol\":1386:1419  payable(msg.sender).send(_amount) */\n      0x08fc\n        /* \"SmartWallet.sol\":1411:1418  _amount */\n      dup6\n        /* \"SmartWallet.sol\":1386:1419  payable(msg.sender).send(_amount) */\n      swap1\n      dup2\n      iszero\n      mul\n      swap1\n      mload(0x40)\n      0x00\n      mload(0x40)\n      dup1\n      dup4\n      sub\n      dup2\n      dup6\n      dup9\n      dup9\n      call\n      swap4\n      pop\n      pop\n      pop\n      pop\n        /* \"SmartWallet.sol\":1381:1447  if (!payable(msg.sender).send(_amount)) revert TransactionFailed() */\n      tag_35\n      jumpi\n        /* \"SmartWallet.sol\":1428:1447  TransactionFailed() */\n      mload(0x40)\n      0xbf961a2800000000000000000000000000000000000000000000000000000000\n      dup2\n      mstore\n      0x04\n      add\n      mload(0x40)\n      dup1\n      swap2\n      sub\n      swap1\n      revert\n        /* \"SmartWallet.sol\":1381:1447  if (!payable(msg.sender).send(_amount)) revert TransactionFailed() */\n    tag_35:\n        /* \"SmartWallet.sol\":1515:1525  msg.sender */\n      caller\n        /* \"SmartWallet.sol\":1462:1527  UserWithdrawedFromAccount({amount: _amount, account: msg.sender}) */\n      0xffffffffffffffffffffffffffffffffffffffff\n      and\n      0x74a9f05e9c64b5c8e0c1b43caeaaf64c988e559de8f4c701968de05f8aa7a4d7\n        /* \"SmartWallet.sol\":1497:1504  _amount */\n      dup6\n        /* \"SmartWallet.sol\":1462:1527  UserWithdrawedFromAccount({amount: _amount, account: msg.sender}) */\n      mload(0x40)\n      tag_36\n      swap2\n      swap1\n      tag_13\n      jump\t// in\n    tag_36:\n      mload(0x40)\n      dup1\n      swap2\n      sub\n      swap1\n      log2\n        /* \"SmartWallet.sol\":1574:1582  Accounts */\n      0x00\n        /* \"SmartWallet.sol\":1574:1594  Accounts[msg.sender] */\n      dup1\n        /* \"SmartWallet.sol\":1583:1593  msg.sender */\n      caller\n        /* \"SmartWallet.sol\":1574:1594  Accounts[msg.sender] */\n      0xffffffffffffffffffffffffffffffffffffffff\n      and\n      0xffffffffffffffffffffffffffffffffffffffff\n      and\n      dup2\n      mstore\n      0x20\n      add\n      swap1\n      dup2\n      mstore\n      0x20\n      add\n      0x00\n      keccak256\n        /* \"SmartWallet.sol\":1574:1602  Accounts[msg.sender].balance */\n      0x00\n      add\n      sload\n        /* \"SmartWallet.sol\":1563:1570  _amount */\n      dup5\n        /* \"SmartWallet.sol\":1545:1560  startingBalance */\n      dup3\n        /* \"SmartWallet.sol\":1545:1570  startingBalance - _amount */\n      tag_37\n      swap2\n      swap1\n      tag_33\n      jump\t// in\n    tag_37:\n        /* \"SmartWallet.sol\":1545:1602  startingBalance - _amount == Accounts[msg.sender].balance */\n      eq\n        /* \"SmartWallet.sol\":1538:1603  assert(startingBalance - _amount == Accounts[msg.sender].balance) */\n      tag_38\n      jumpi\n      tag_39\n      tag_40\n      jump\t// in\n    tag_39:\n    tag_38:\n        /* \"SmartWallet.sol\":1257:1610  {... */\n      pop\n        /* \"SmartWallet.sol\":596:767  {... */\n      pop\n        /* \"SmartWallet.sol\":1172:1610  function withdrawFromAccount(uint256 _amount) public checkSufficientBalance(_amount) {... */\n      pop\n      pop\n      jump\t// out\n        /* \"SmartWallet.sol\":843:1166  function depositToAccount() public payable {... */\n    tag_20:\n        /* \"SmartWallet.sol\":896:919  uint256 startingBalance */\n      0x00\n        /* \"SmartWallet.sol\":922:930  Accounts */\n      dup1\n        /* \"SmartWallet.sol\":922:942  Accounts[msg.sender] */\n      0x00\n        /* \"SmartWallet.sol\":931:941  msg.sender */\n      caller\n        /* \"SmartWallet.sol\":922:942  Accounts[msg.sender] */\n      0xffffffffffffffffffffffffffffffffffffffff\n      and\n      0xffffffffffffffffffffffffffffffffffffffff\n      and\n      dup2\n      mstore\n      0x20\n      add\n      swap1\n      dup2\n      mstore\n      0x20\n      add\n      0x00\n      keccak256\n        /* \"SmartWallet.sol\":922:950  Accounts[msg.sender].balance */\n      0x00\n      add\n      sload\n        /* \"SmartWallet.sol\":896:950  uint256 startingBalance = Accounts[msg.sender].balance */\n      swap1\n      pop\n        /* \"SmartWallet.sol\":993:1002  msg.value */\n      callvalue\n        /* \"SmartWallet.sol\":961:969  Accounts */\n      0x00\n        /* \"SmartWallet.sol\":961:981  Accounts[msg.sender] */\n      dup1\n        /* \"SmartWallet.sol\":970:980  msg.sender */\n      caller\n        /* \"SmartWallet.sol\":961:981  Accounts[msg.sender] */\n      0xffffffffffffffffffffffffffffffffffffffff\n      and\n      0xffffffffffffffffffffffffffffffffffffffff\n      and\n      dup2\n      mstore\n      0x20\n      add\n      swap1\n      dup2\n      mstore\n      0x20\n      add\n      0x00\n      keccak256\n        /* \"SmartWallet.sol\":961:989  Accounts[msg.sender].balance */\n      0x00\n      add\n      0x00\n        /* \"SmartWallet.sol\":961:1002  Accounts[msg.sender].balance += msg.value */\n      dup3\n      dup3\n      sload\n      tag_42\n      swap2\n      swap1\n      tag_43\n      jump\t// in\n    tag_42:\n      swap3\n      pop\n      pop\n      dup2\n      swap1\n      sstore\n      pop\n        /* \"SmartWallet.sol\":1069:1079  msg.sender */\n      caller\n        /* \"SmartWallet.sol\":1017:1081  UserDepositedToAccount({amount: msg.value, account: msg.sender}) */\n      0xffffffffffffffffffffffffffffffffffffffff\n      and\n      0x1810b37cc45c862015500efc280f1229c486a31e8296a6019608848594a5c030\n        /* \"SmartWallet.sol\":1049:1058  msg.value */\n      callvalue\n        /* \"SmartWallet.sol\":1017:1081  UserDepositedToAccount({amount: msg.value, account: msg.sender}) */\n      mload(0x40)\n      tag_44\n      swap2\n      swap1\n      tag_13\n      jump\t// in\n    tag_44:\n      mload(0x40)\n      dup1\n      swap2\n      sub\n      swap1\n      log2\n        /* \"SmartWallet.sol\":1130:1138  Accounts */\n      0x00\n        /* \"SmartWallet.sol\":1130:1150  Accounts[msg.sender] */\n      dup1\n        /* \"SmartWallet.sol\":1139:1149  msg.sender */\n      caller\n        /* \"SmartWallet.sol\":1130:1150  Accounts[msg.sender] */\n      0xffffffffffffffffffffffffffffffffffffffff\n      and\n      0xffffffffffffffffffffffffffffffffffffffff\n      and\n      dup2\n      mstore\n      0x20\n      add\n      swap1\n      dup2\n      mstore\n      0x20\n      add\n      0x00\n      keccak256\n        /* \"SmartWallet.sol\":1130:1158  Accounts[msg.sender].balance */\n      0x00\n      add\n      sload\n        /* \"SmartWallet.sol\":1117:1126  msg.value */\n      callvalue\n        /* \"SmartWallet.sol\":1099:1114  startingBalance */\n      dup3\n        /* \"SmartWallet.sol\":1099:1126  startingBalance + msg.value */\n      tag_45\n      swap2\n      swap1\n      tag_43\n      jump\t// in\n    tag_45:\n        /* \"SmartWallet.sol\":1099:1158  startingBalance + msg.value == Accounts[msg.sender].balance */\n      eq\n        /* \"SmartWallet.sol\":1092:1159  assert(startingBalance + msg.value == Accounts[msg.sender].balance) */\n      tag_46\n      jumpi\n      tag_47\n      tag_40\n      jump\t// in\n    tag_47:\n    tag_46:\n        /* \"SmartWallet.sol\":886:1166  {... */\n      pop\n        /* \"SmartWallet.sol\":843:1166  function depositToAccount() public payable {... */\n      jump\t// out\n        /* \"SmartWallet.sol\":1616:2226  function transferFunds(uint256 _amount, address _recipient) public checkSufficientBalance(_amount) {... */\n    tag_25:\n        /* \"SmartWallet.sol\":1706:1713  _amount */\n      dup2\n        /* \"SmartWallet.sol\":606:628  uint256 accountBalance */\n      0x00\n        /* \"SmartWallet.sol\":631:639  Accounts */\n      dup1\n        /* \"SmartWallet.sol\":631:651  Accounts[msg.sender] */\n      0x00\n        /* \"SmartWallet.sol\":640:650  msg.sender */\n      caller\n        /* \"SmartWallet.sol\":631:651  Accounts[msg.sender] */\n      0xffffffffffffffffffffffffffffffffffffffff\n      and\n      0xffffffffffffffffffffffffffffffffffffffff\n      and\n      dup2\n      mstore\n      0x20\n      add\n      swap1\n      dup2\n      mstore\n      0x20\n      add\n      0x00\n      keccak256\n        /* \"SmartWallet.sol\":631:659  Accounts[msg.sender].balance */\n      0x00\n      add\n      sload\n        /* \"SmartWallet.sol\":606:659  uint256 accountBalance = Accounts[msg.sender].balance */\n      swap1\n      pop\n        /* \"SmartWallet.sol\":681:695  accountBalance */\n      dup1\n        /* \"SmartWallet.sol\":671:678  _amount */\n      dup3\n        /* \"SmartWallet.sol\":671:695  _amount > accountBalance */\n      gt\n        /* \"SmartWallet.sol\":668:749  if(_amount > accountBalance) revert NotSufficientBalance(_amount, accountBalance) */\n      iszero\n      tag_49\n      jumpi\n        /* \"SmartWallet.sol\":725:732  _amount */\n      dup2\n        /* \"SmartWallet.sol\":734:748  accountBalance */\n      dup2\n        /* \"SmartWallet.sol\":704:749  NotSufficientBalance(_amount, accountBalance) */\n      mload(0x40)\n      0x1b4d8e6200000000000000000000000000000000000000000000000000000000\n      dup2\n      mstore\n      0x04\n      add\n      tag_50\n      swap3\n      swap2\n      swap1\n      tag_30\n      jump\t// in\n    tag_50:\n      mload(0x40)\n      dup1\n      swap2\n      sub\n      swap1\n      revert\n        /* \"SmartWallet.sol\":668:749  if(_amount > accountBalance) revert NotSufficientBalance(_amount, accountBalance) */\n    tag_49:\n        /* \"SmartWallet.sol\":1725:1754  uint256 senderStartingBalance */\n      0x00\n        /* \"SmartWallet.sol\":1757:1765  Accounts */\n      dup1\n        /* \"SmartWallet.sol\":1757:1777  Accounts[msg.sender] */\n      0x00\n        /* \"SmartWallet.sol\":1766:1776  msg.sender */\n      caller\n        /* \"SmartWallet.sol\":1757:1777  Accounts[msg.sender] */\n      0xffffffffffffffffffffffffffffffffffffffff\n      and\n      0xffffffffffffffffffffffffffffffffffffffff\n      and\n      dup2\n      mstore\n      0x20\n      add\n      swap1\n      dup2\n      mstore\n      0x20\n      add\n      0x00\n      keccak256\n        /* \"SmartWallet.sol\":1757:1785  Accounts[msg.sender].balance */\n      0x00\n      add\n      sload\n        /* \"SmartWallet.sol\":1725:1785  uint256 senderStartingBalance = Accounts[msg.sender].balance */\n      swap1\n      pop\n        /* \"SmartWallet.sol\":1795:1827  uint256 recipientStartingBalance */\n      0x00\n        /* \"SmartWallet.sol\":1830:1838  Accounts */\n      dup1\n        /* \"SmartWallet.sol\":1830:1850  Accounts[_recipient] */\n      0x00\n        /* \"SmartWallet.sol\":1839:1849  _recipient */\n      dup7\n        /* \"SmartWallet.sol\":1830:1850  Accounts[_recipient] */\n      0xffffffffffffffffffffffffffffffffffffffff\n      and\n      0xffffffffffffffffffffffffffffffffffffffff\n      and\n      dup2\n      mstore\n      0x20\n      add\n      swap1\n      dup2\n      mstore\n      0x20\n      add\n      0x00\n      keccak256\n        /* \"SmartWallet.sol\":1830:1858  Accounts[_recipient].balance */\n      0x00\n      add\n      sload\n        /* \"SmartWallet.sol\":1795:1858  uint256 recipientStartingBalance = Accounts[_recipient].balance */\n      swap1\n      pop\n        /* \"SmartWallet.sol\":1901:1908  _amount */\n      dup6\n        /* \"SmartWallet.sol\":1869:1877  Accounts */\n      0x00\n        /* \"SmartWallet.sol\":1869:1889  Accounts[msg.sender] */\n      dup1\n        /* \"SmartWallet.sol\":1878:1888  msg.sender */\n      caller\n        /* \"SmartWallet.sol\":1869:1889  Accounts[msg.sender] */\n      0xffffffffffffffffffffffffffffffffffffffff\n      and\n      0xffffffffffffffffffffffffffffffffffffffff\n      and\n      dup2\n      mstore\n      0x20\n      add\n      swap1\n      dup2\n      mstore\n      0x20\n      add\n      0x00\n      keccak256\n        /* \"SmartWallet.sol\":1869:1897  Accounts[msg.sender].balance */\n      0x00\n      add\n      0x00\n        /* \"SmartWallet.sol\":1869:1908  Accounts[msg.sender].balance -= _amount */\n      dup3\n      dup3\n      sload\n      tag_52\n      swap2\n      swap1\n      tag_33\n      jump\t// in\n    tag_52:\n      swap3\n      pop\n      pop\n      dup2\n      swap1\n      sstore\n      pop\n        /* \"SmartWallet.sol\":1950:1957  _amount */\n      dup6\n        /* \"SmartWallet.sol\":1918:1926  Accounts */\n      0x00\n        /* \"SmartWallet.sol\":1918:1938  Accounts[_recipient] */\n      dup1\n        /* \"SmartWallet.sol\":1927:1937  _recipient */\n      dup8\n        /* \"SmartWallet.sol\":1918:1938  Accounts[_recipient] */\n      0xffffffffffffffffffffffffffffffffffffffff\n      and\n      0xffffffffffffffffffffffffffffffffffffffff\n      and\n      dup2\n      mstore\n      0x20\n      add\n      swap1\n      dup2\n      mstore\n      0x20\n      add\n      0x00\n      keccak256\n        /* \"SmartWallet.sol\":1918:1946  Accounts[_recipient].balance */\n      0x00\n      add\n      0x00\n        /* \"SmartWallet.sol\":1918:1957  Accounts[_recipient].balance += _amount */\n      dup3\n      dup3\n      sload\n      tag_53\n      swap2\n      swap1\n      tag_43\n      jump\t// in\n    tag_53:\n      swap3\n      pop\n      pop\n      dup2\n      swap1\n      sstore\n      pop\n        /* \"SmartWallet.sol\":2041:2051  _recipient */\n      dup5\n        /* \"SmartWallet.sol\":1972:2053  UserTransferedFunds({amount: _amount, sender: msg.sender, recipient: _recipient}) */\n      0xffffffffffffffffffffffffffffffffffffffff\n      and\n        /* \"SmartWallet.sol\":2018:2028  msg.sender */\n      caller\n        /* \"SmartWallet.sol\":1972:2053  UserTransferedFunds({amount: _amount, sender: msg.sender, recipient: _recipient}) */\n      0xffffffffffffffffffffffffffffffffffffffff\n      and\n      0x6f3683305f9776c3358a0fce2f112aa29b09a8fdd6b23665785b6b74183f20ea\n        /* \"SmartWallet.sol\":2001:2008  _amount */\n      dup9\n        /* \"SmartWallet.sol\":1972:2053  UserTransferedFunds({amount: _amount, sender: msg.sender, recipient: _recipient}) */\n      mload(0x40)\n      tag_54\n      swap2\n      swap1\n      tag_13\n      jump\t// in\n    tag_54:\n      mload(0x40)\n      dup1\n      swap2\n      sub\n      swap1\n      log3\n        /* \"SmartWallet.sol\":2106:2114  Accounts */\n      0x00\n        /* \"SmartWallet.sol\":2106:2126  Accounts[msg.sender] */\n      dup1\n        /* \"SmartWallet.sol\":2115:2125  msg.sender */\n      caller\n        /* \"SmartWallet.sol\":2106:2126  Accounts[msg.sender] */\n      0xffffffffffffffffffffffffffffffffffffffff\n      and\n      0xffffffffffffffffffffffffffffffffffffffff\n      and\n      dup2\n      mstore\n      0x20\n      add\n      swap1\n      dup2\n      mstore\n      0x20\n      add\n      0x00\n      keccak256\n        /* \"SmartWallet.sol\":2106:2134  Accounts[msg.sender].balance */\n      0x00\n      add\n      sload\n        /* \"SmartWallet.sol\":2095:2102  _amount */\n      dup7\n        /* \"SmartWallet.sol\":2071:2092  senderStartingBalance */\n      dup4\n        /* \"SmartWallet.sol\":2071:2102  senderStartingBalance - _amount */\n      tag_55\n      swap2\n      swap1\n      tag_33\n      jump\t// in\n    tag_55:\n        /* \"SmartWallet.sol\":2071:2134  senderStartingBalance - _amount == Accounts[msg.sender].balance */\n      eq\n        /* \"SmartWallet.sol\":2064:2135  assert(senderStartingBalance - _amount == Accounts[msg.sender].balance) */\n      tag_56\n      jumpi\n      tag_57\n      tag_40\n      jump\t// in\n    tag_57:\n    tag_56:\n        /* \"SmartWallet.sol\":2190:2198  Accounts */\n      0x00\n        /* \"SmartWallet.sol\":2190:2210  Accounts[_recipient] */\n      dup1\n        /* \"SmartWallet.sol\":2199:2209  _recipient */\n      dup7\n        /* \"SmartWallet.sol\":2190:2210  Accounts[_recipient] */\n      0xffffffffffffffffffffffffffffffffffffffff\n      and\n      0xffffffffffffffffffffffffffffffffffffffff\n      and\n      dup2\n      mstore\n      0x20\n      add\n      swap1\n      dup2\n      mstore\n      0x20\n      add\n      0x00\n      keccak256\n        /* \"SmartWallet.sol\":2190:2218  Accounts[_recipient].balance */\n      0x00\n      add\n      sload\n        /* \"SmartWallet.sol\":2179:2186  _amount */\n      dup7\n        /* \"SmartWallet.sol\":2152:2176  recipientStartingBalance */\n      dup3\n        /* \"SmartWallet.sol\":2152:2186  recipientStartingBalance + _amount */\n      tag_58\n      swap2\n      swap1\n      tag_43\n      jump\t// in\n    tag_58:\n        /* \"SmartWallet.sol\":2152:2218  recipientStartingBalance + _amount == Accounts[_recipient].balance */\n      eq\n        /* \"SmartWallet.sol\":2145:2219  assert(recipientStartingBalance + _amount == Accounts[_recipient].balance) */\n      tag_59\n      jumpi\n      tag_60\n      tag_40\n      jump\t// in\n    tag_60:\n    tag_59:\n        /* \"SmartWallet.sol\":1715:2226  {... */\n      pop\n      pop\n        /* \"SmartWallet.sol\":596:767  {... */\n      pop\n        /* \"SmartWallet.sol\":1616:2226  function transferFunds(uint256 _amount, address _recipient) public checkSufficientBalance(_amount) {... */\n      pop\n      pop\n      pop\n      jump\t// out\n        /* \"#utility.yul\":7:84   */\n    tag_61:\n        /* \"#utility.yul\":44:51   */\n      0x00\n        /* \"#utility.yul\":73:78   */\n      dup2\n        /* \"#utility.yul\":62:78   */\n      swap1\n      pop\n        /* \"#utility.yul\":7:84   */\n      swap2\n      swap1\n      pop\n      jump\t// out\n        /* \"#utility.yul\":90:208   */\n    tag_62:\n        /* \"#utility.yul\":177:201   */\n      tag_76\n        /* \"#utility.yul\":195:200   */\n      dup2\n        /* \"#utility.yul\":177:201   */\n      tag_61\n      jump\t// in\n    tag_76:\n        /* \"#utility.yul\":172:175   */\n      dup3\n        /* \"#utility.yul\":165:202   */\n      mstore\n        /* \"#utility.yul\":90:208   */\n      pop\n      pop\n      jump\t// out\n        /* \"#utility.yul\":214:436   */\n    tag_13:\n        /* \"#utility.yul\":307:311   */\n      0x00\n        /* \"#utility.yul\":345:347   */\n      0x20\n        /* \"#utility.yul\":334:343   */\n      dup3\n        /* \"#utility.yul\":330:348   */\n      add\n        /* \"#utility.yul\":322:348   */\n      swap1\n      pop\n        /* \"#utility.yul\":358:429   */\n      tag_78\n        /* \"#utility.yul\":426:427   */\n      0x00\n        /* \"#utility.yul\":415:424   */\n      dup4\n        /* \"#utility.yul\":411:428   */\n      add\n        /* \"#utility.yul\":402:408   */\n      dup5\n        /* \"#utility.yul\":358:429   */\n      tag_62\n      jump\t// in\n    tag_78:\n        /* \"#utility.yul\":214:436   */\n      swap3\n      swap2\n      pop\n      pop\n      jump\t// out\n        /* \"#utility.yul\":523:640   */\n    tag_64:\n        /* \"#utility.yul\":632:633   */\n      0x00\n        /* \"#utility.yul\":629:630   */\n      dup1\n        /* \"#utility.yul\":622:634   */\n      revert\n        /* \"#utility.yul\":769:891   */\n    tag_66:\n        /* \"#utility.yul\":842:866   */\n      tag_83\n        /* \"#utility.yul\":860:865   */\n      dup2\n        /* \"#utility.yul\":842:866   */\n      tag_61\n      jump\t// in\n    tag_83:\n        /* \"#utility.yul\":835:840   */\n      dup2\n        /* \"#utility.yul\":832:867   */\n      eq\n        /* \"#utility.yul\":822:885   */\n      tag_84\n      jumpi\n        /* \"#utility.yul\":881:882   */\n      0x00\n        /* \"#utility.yul\":878:879   */\n      dup1\n        /* \"#utility.yul\":871:883   */\n      revert\n        /* \"#utility.yul\":822:885   */\n    tag_84:\n        /* \"#utility.yul\":769:891   */\n      pop\n      jump\t// out\n        /* \"#utility.yul\":897:1036   */\n    tag_67:\n        /* \"#utility.yul\":943:948   */\n      0x00\n        /* \"#utility.yul\":981:987   */\n      dup2\n        /* \"#utility.yul\":968:988   */\n      calldataload\n        /* \"#utility.yul\":959:988   */\n      swap1\n      pop\n        /* \"#utility.yul\":997:1030   */\n      tag_86\n        /* \"#utility.yul\":1024:1029   */\n      dup2\n        /* \"#utility.yul\":997:1030   */\n      tag_66\n      jump\t// in\n    tag_86:\n        /* \"#utility.yul\":897:1036   */\n      swap3\n      swap2\n      pop\n      pop\n      jump\t// out\n        /* \"#utility.yul\":1042:1371   */\n    tag_17:\n        /* \"#utility.yul\":1101:1107   */\n      0x00\n        /* \"#utility.yul\":1150:1152   */\n      0x20\n        /* \"#utility.yul\":1138:1147   */\n      dup3\n        /* \"#utility.yul\":1129:1136   */\n      dup5\n        /* \"#utility.yul\":1125:1148   */\n      sub\n        /* \"#utility.yul\":1121:1153   */\n      slt\n        /* \"#utility.yul\":1118:1237   */\n      iszero\n      tag_88\n      jumpi\n        /* \"#utility.yul\":1156:1235   */\n      tag_89\n      tag_64\n      jump\t// in\n    tag_89:\n        /* \"#utility.yul\":1118:1237   */\n    tag_88:\n        /* \"#utility.yul\":1276:1277   */\n      0x00\n        /* \"#utility.yul\":1301:1354   */\n      tag_90\n        /* \"#utility.yul\":1346:1353   */\n      dup5\n        /* \"#utility.yul\":1337:1343   */\n      dup3\n        /* \"#utility.yul\":1326:1335   */\n      dup6\n        /* \"#utility.yul\":1322:1344   */\n      add\n        /* \"#utility.yul\":1301:1354   */\n      tag_67\n      jump\t// in\n    tag_90:\n        /* \"#utility.yul\":1291:1354   */\n      swap2\n      pop\n        /* \"#utility.yul\":1247:1364   */\n      pop\n        /* \"#utility.yul\":1042:1371   */\n      swap3\n      swap2\n      pop\n      pop\n      jump\t// out\n        /* \"#utility.yul\":1377:1503   */\n    tag_68:\n        /* \"#utility.yul\":1414:1421   */\n      0x00\n        /* \"#utility.yul\":1454:1496   */\n      0xffffffffffffffffffffffffffffffffffffffff\n        /* \"#utility.yul\":1447:1452   */\n      dup3\n        /* \"#utility.yul\":1443:1497   */\n      and\n        /* \"#utility.yul\":1432:1497   */\n      swap1\n      pop\n        /* \"#utility.yul\":1377:1503   */\n      swap2\n      swap1\n      pop\n      jump\t// out\n        /* \"#utility.yul\":1509:1605   */\n    tag_69:\n        /* \"#utility.yul\":1546:1553   */\n      0x00\n        /* \"#utility.yul\":1575:1599   */\n      tag_93\n        /* \"#utility.yul\":1593:1598   */\n      dup3\n        /* \"#utility.yul\":1575:1599   */\n      tag_68\n      jump\t// in\n    tag_93:\n        /* \"#utility.yul\":1564:1599   */\n      swap1\n      pop\n        /* \"#utility.yul\":1509:1605   */\n      swap2\n      swap1\n      pop\n      jump\t// out\n        /* \"#utility.yul\":1611:1733   */\n    tag_70:\n        /* \"#utility.yul\":1684:1708   */\n      tag_95\n        /* \"#utility.yul\":1702:1707   */\n      dup2\n        /* \"#utility.yul\":1684:1708   */\n      tag_69\n      jump\t// in\n    tag_95:\n        /* \"#utility.yul\":1677:1682   */\n      dup2\n        /* \"#utility.yul\":1674:1709   */\n      eq\n        /* \"#utility.yul\":1664:1727   */\n      tag_96\n      jumpi\n        /* \"#utility.yul\":1723:1724   */\n      0x00\n        /* \"#utility.yul\":1720:1721   */\n      dup1\n        /* \"#utility.yul\":1713:1725   */\n      revert\n        /* \"#utility.yul\":1664:1727   */\n    tag_96:\n        /* \"#utility.yul\":1611:1733   */\n      pop\n      jump\t// out\n        /* \"#utility.yul\":1739:1878   */\n    tag_71:\n        /* \"#utility.yul\":1785:1790   */\n      0x00\n        /* \"#utility.yul\":1823:1829   */\n      dup2\n        /* \"#utility.yul\":1810:1830   */\n      calldataload\n        /* \"#utility.yul\":1801:1830   */\n      swap1\n      pop\n        /* \"#utility.yul\":1839:1872   */\n      tag_98\n        /* \"#utility.yul\":1866:1871   */\n      dup2\n        /* \"#utility.yul\":1839:1872   */\n      tag_70\n      jump\t// in\n    tag_98:\n        /* \"#utility.yul\":1739:1878   */\n      swap3\n      swap2\n      pop\n      pop\n      jump\t// out\n        /* \"#utility.yul\":1884:2358   */\n    tag_24:\n        /* \"#utility.yul\":1952:1958   */\n      0x00\n        /* \"#utility.yul\":1960:1966   */\n      dup1\n        /* \"#utility.yul\":2009:2011   */\n      0x40\n        /* \"#utility.yul\":1997:2006   */\n      dup4\n        /* \"#utility.yul\":1988:1995   */\n      dup6\n        /* \"#utility.yul\":1984:2007   */\n      sub\n        /* \"#utility.yul\":1980:2012   */\n      slt\n        /* \"#utility.yul\":1977:2096   */\n      iszero\n      tag_100\n      jumpi\n        /* \"#utility.yul\":2015:2094   */\n      tag_101\n      tag_64\n      jump\t// in\n    tag_101:\n        /* \"#utility.yul\":1977:2096   */\n    tag_100:\n        /* \"#utility.yul\":2135:2136   */\n      0x00\n        /* \"#utility.yul\":2160:2213   */\n      tag_102\n        /* \"#utility.yul\":2205:2212   */\n      dup6\n        /* \"#utility.yul\":2196:2202   */\n      dup3\n        /* \"#utility.yul\":2185:2194   */\n      dup7\n        /* \"#utility.yul\":2181:2203   */\n      add\n        /* \"#utility.yul\":2160:2213   */\n      tag_67\n      jump\t// in\n    tag_102:\n        /* \"#utility.yul\":2150:2213   */\n      swap3\n      pop\n        /* \"#utility.yul\":2106:2223   */\n      pop\n        /* \"#utility.yul\":2262:2264   */\n      0x20\n        /* \"#utility.yul\":2288:2341   */\n      tag_103\n        /* \"#utility.yul\":2333:2340   */\n      dup6\n        /* \"#utility.yul\":2324:2330   */\n      dup3\n        /* \"#utility.yul\":2313:2322   */\n      dup7\n        /* \"#utility.yul\":2309:2331   */\n      add\n        /* \"#utility.yul\":2288:2341   */\n      tag_71\n      jump\t// in\n    tag_103:\n        /* \"#utility.yul\":2278:2341   */\n      swap2\n      pop\n        /* \"#utility.yul\":2233:2351   */\n      pop\n        /* \"#utility.yul\":1884:2358   */\n      swap3\n      pop\n      swap3\n      swap1\n      pop\n      jump\t// out\n        /* \"#utility.yul\":2364:2696   */\n    tag_30:\n        /* \"#utility.yul\":2485:2489   */\n      0x00\n        /* \"#utility.yul\":2523:2525   */\n      0x40\n        /* \"#utility.yul\":2512:2521   */\n      dup3\n        /* \"#utility.yul\":2508:2526   */\n      add\n        /* \"#utility.yul\":2500:2526   */\n      swap1\n      pop\n        /* \"#utility.yul\":2536:2607   */\n      tag_105\n        /* \"#utility.yul\":2604:2605   */\n      0x00\n        /* \"#utility.yul\":2593:2602   */\n      dup4\n        /* \"#utility.yul\":2589:2606   */\n      add\n        /* \"#utility.yul\":2580:2586   */\n      dup6\n        /* \"#utility.yul\":2536:2607   */\n      tag_62\n      jump\t// in\n    tag_105:\n        /* \"#utility.yul\":2617:2689   */\n      tag_106\n        /* \"#utility.yul\":2685:2687   */\n      0x20\n        /* \"#utility.yul\":2674:2683   */\n      dup4\n        /* \"#utility.yul\":2670:2688   */\n      add\n        /* \"#utility.yul\":2661:2667   */\n      dup5\n        /* \"#utility.yul\":2617:2689   */\n      tag_62\n      jump\t// in\n    tag_106:\n        /* \"#utility.yul\":2364:2696   */\n      swap4\n      swap3\n      pop\n      pop\n      pop\n      jump\t// out\n        /* \"#utility.yul\":2702:2882   */\n    tag_72:\n        /* \"#utility.yul\":2750:2827   */\n      0x4e487b7100000000000000000000000000000000000000000000000000000000\n        /* \"#utility.yul\":2747:2748   */\n      0x00\n        /* \"#utility.yul\":2740:2828   */\n      mstore\n        /* \"#utility.yul\":2847:2851   */\n      0x11\n        /* \"#utility.yul\":2844:2845   */\n      0x04\n        /* \"#utility.yul\":2837:2852   */\n      mstore\n        /* \"#utility.yul\":2871:2875   */\n      0x24\n        /* \"#utility.yul\":2868:2869   */\n      0x00\n        /* \"#utility.yul\":2861:2876   */\n      revert\n        /* \"#utility.yul\":2888:3082   */\n    tag_33:\n        /* \"#utility.yul\":2928:2932   */\n      0x00\n        /* \"#utility.yul\":2948:2968   */\n      tag_109\n        /* \"#utility.yul\":2966:2967   */\n      dup3\n        /* \"#utility.yul\":2948:2968   */\n      tag_61\n      jump\t// in\n    tag_109:\n        /* \"#utility.yul\":2943:2968   */\n      swap2\n      pop\n        /* \"#utility.yul\":2982:3002   */\n      tag_110\n        /* \"#utility.yul\":3000:3001   */\n      dup4\n        /* \"#utility.yul\":2982:3002   */\n      tag_61\n      jump\t// in\n    tag_110:\n        /* \"#utility.yul\":2977:3002   */\n      swap3\n      pop\n        /* \"#utility.yul\":3026:3027   */\n      dup3\n        /* \"#utility.yul\":3023:3024   */\n      dup3\n        /* \"#utility.yul\":3019:3028   */\n      sub\n        /* \"#utility.yul\":3011:3028   */\n      swap1\n      pop\n        /* \"#utility.yul\":3050:3051   */\n      dup2\n        /* \"#utility.yul\":3044:3048   */\n      dup2\n        /* \"#utility.yul\":3041:3052   */\n      gt\n        /* \"#utility.yul\":3038:3075   */\n      iszero\n      tag_111\n      jumpi\n        /* \"#utility.yul\":3055:3073   */\n      tag_112\n      tag_72\n      jump\t// in\n    tag_112:\n        /* \"#utility.yul\":3038:3075   */\n    tag_111:\n        /* \"#utility.yul\":2888:3082   */\n      swap3\n      swap2\n      pop\n      pop\n      jump\t// out\n        /* \"#utility.yul\":3088:3268   */\n    tag_40:\n        /* \"#utility.yul\":3136:3213   */\n      0x4e487b7100000000000000000000000000000000000000000000000000000000\n        /* \"#utility.yul\":3133:3134   */\n      0x00\n        /* \"#utility.yul\":3126:3214   */\n      mstore\n        /* \"#utility.yul\":3233:3237   */\n      0x01\n        /* \"#utility.yul\":3230:3231   */\n      0x04\n        /* \"#utility.yul\":3223:3238   */\n      mstore\n        /* \"#utility.yul\":3257:3261   */\n      0x24\n        /* \"#utility.yul\":3254:3255   */\n      0x00\n        /* \"#utility.yul\":3247:3262   */\n      revert\n        /* \"#utility.yul\":3274:3465   */\n    tag_43:\n        /* \"#utility.yul\":3314:3317   */\n      0x00\n        /* \"#utility.yul\":3333:3353   */\n      tag_115\n        /* \"#utility.yul\":3351:3352   */\n      dup3\n        /* \"#utility.yul\":3333:3353   */\n      tag_61\n      jump\t// in\n    tag_115:\n        /* \"#utility.yul\":3328:3353   */\n      swap2\n      pop\n        /* \"#utility.yul\":3367:3387   */\n      tag_116\n        /* \"#utility.yul\":3385:3386   */\n      dup4\n        /* \"#utility.yul\":3367:3387   */\n      tag_61\n      jump\t// in\n    tag_116:\n        /* \"#utility.yul\":3362:3387   */\n      swap3\n      pop\n        /* \"#utility.yul\":3410:3411   */\n      dup3\n        /* \"#utility.yul\":3407:3408   */\n      dup3\n        /* \"#utility.yul\":3403:3412   */\n      add\n        /* \"#utility.yul\":3396:3412   */\n      swap1\n      pop\n        /* \"#utility.yul\":3431:3434   */\n      dup1\n        /* \"#utility.yul\":3428:3429   */\n      dup3\n        /* \"#utility.yul\":3425:3435   */\n      gt\n        /* \"#utility.yul\":3422:3458   */\n      iszero\n      tag_117\n      jumpi\n        /* \"#utility.yul\":3438:3456   */\n      tag_118\n      tag_72\n      jump\t// in\n    tag_118:\n        /* \"#utility.yul\":3422:3458   */\n    tag_117:\n        /* \"#utility.yul\":3274:3465   */\n      swap3\n      swap2\n      pop\n      pop\n      jump\t// out\n\n    auxdata: 0xa26469706673582212201eb824dd083b4dcaadba9a065ce9ee997a7f26bf2375aa8d718912548500b7c164736f6c63430008130033\n}\n",
				"bytecode": {
					"linkReferences": {},
					"object": "608060405234801561001057600080fd5b50610a1c806100206000396000f3fe6080604052600436106100435760003560e01c806312065fe0146100765780634792b098146100a1578063720409d9146100ca578063f08e362f146100d457610044565b5b6040517f41cc6b2100000000000000000000000000000000000000000000000000000000815260040160405180910390fd5b34801561008257600080fd5b5061008b6100fd565b60405161009891906107e0565b60405180910390f35b3480156100ad57600080fd5b506100c860048036038101906100c3919061082c565b610146565b005b6100d261038d565b005b3480156100e057600080fd5b506100fb60048036038101906100f691906108b7565b6104d8565b005b60008060003373ffffffffffffffffffffffffffffffffffffffff1673ffffffffffffffffffffffffffffffffffffffff16815260200190815260200160002060000154905090565b8060008060003373ffffffffffffffffffffffffffffffffffffffff1673ffffffffffffffffffffffffffffffffffffffff168152602001908152602001600020600001549050808211156101d45781816040517f1b4d8e620000000000000000000000000000000000000000000000000000000081526004016101cb9291906108f7565b60405180910390fd5b60008060003373ffffffffffffffffffffffffffffffffffffffff1673ffffffffffffffffffffffffffffffffffffffff168152602001908152602001600020600001549050836000803373ffffffffffffffffffffffffffffffffffffffff1673ffffffffffffffffffffffffffffffffffffffff168152602001908152602001600020600001600082825461026b919061094f565b925050819055503373ffffffffffffffffffffffffffffffffffffffff166108fc859081150290604051600060405180830381858888f193505050506102dd576040517fbf961a2800000000000000000000000000000000000000000000000000000000815260040160405180910390fd5b3373ffffffffffffffffffffffffffffffffffffffff167f74a9f05e9c64b5c8e0c1b43caeaaf64c988e559de8f4c701968de05f8aa7a4d78560405161032391906107e0565b60405180910390a26000803373ffffffffffffffffffffffffffffffffffffffff1673ffffffffffffffffffffffffffffffffffffffff168152602001908152602001600020600001548482610379919061094f565b1461038757610386610983565b5b50505050565b60008060003373ffffffffffffffffffffffffffffffffffffffff1673ffffffffffffffffffffffffffffffffffffffff168152602001908152602001600020600001549050346000803373ffffffffffffffffffffffffffffffffffffffff1673ffffffffffffffffffffffffffffffffffffffff168152602001908152602001600020600001600082825461042491906109b2565b925050819055503373ffffffffffffffffffffffffffffffffffffffff167f1810b37cc45c862015500efc280f1229c486a31e8296a6019608848594a5c0303460405161047191906107e0565b60405180910390a26000803373ffffffffffffffffffffffffffffffffffffffff1673ffffffffffffffffffffffffffffffffffffffff1681526020019081526020016000206000015434826104c791906109b2565b146104d5576104d4610983565b5b50565b8160008060003373ffffffffffffffffffffffffffffffffffffffff1673ffffffffffffffffffffffffffffffffffffffff168152602001908152602001600020600001549050808211156105665781816040517f1b4d8e6200000000000000000000000000000000000000000000000000000000815260040161055d9291906108f7565b60405180910390fd5b60008060003373ffffffffffffffffffffffffffffffffffffffff1673ffffffffffffffffffffffffffffffffffffffff16815260200190815260200160002060000154905060008060008673ffffffffffffffffffffffffffffffffffffffff1673ffffffffffffffffffffffffffffffffffffffff168152602001908152602001600020600001549050856000803373ffffffffffffffffffffffffffffffffffffffff1673ffffffffffffffffffffffffffffffffffffffff1681526020019081526020016000206000016000828254610643919061094f565b92505081905550856000808773ffffffffffffffffffffffffffffffffffffffff1673ffffffffffffffffffffffffffffffffffffffff168152602001908152602001600020600001600082825461069b91906109b2565b925050819055508473ffffffffffffffffffffffffffffffffffffffff163373ffffffffffffffffffffffffffffffffffffffff167f6f3683305f9776c3358a0fce2f112aa29b09a8fdd6b23665785b6b74183f20ea886040516106ff91906107e0565b60405180910390a36000803373ffffffffffffffffffffffffffffffffffffffff1673ffffffffffffffffffffffffffffffffffffffff168152602001908152602001600020600001548683610755919061094f565b1461076357610762610983565b5b6000808673ffffffffffffffffffffffffffffffffffffffff1673ffffffffffffffffffffffffffffffffffffffff1681526020019081526020016000206000015486826107b191906109b2565b146107bf576107be610983565b5b505050505050565b6000819050919050565b6107da816107c7565b82525050565b60006020820190506107f560008301846107d1565b92915050565b600080fd5b610809816107c7565b811461081457600080fd5b50565b60008135905061082681610800565b92915050565b600060208284031215610842576108416107fb565b5b600061085084828501610817565b91505092915050565b600073ffffffffffffffffffffffffffffffffffffffff82169050919050565b600061088482610859565b9050919050565b61089481610879565b811461089f57600080fd5b50565b6000813590506108b18161088b565b92915050565b600080604083850312156108ce576108cd6107fb565b5b60006108dc85828601610817565b92505060206108ed858286016108a2565b9150509250929050565b600060408201905061090c60008301856107d1565b61091960208301846107d1565b9392505050565b7f4e487b7100000000000000000000000000000000000000000000000000000000600052601160045260246000fd5b600061095a826107c7565b9150610965836107c7565b925082820390508181111561097d5761097c610920565b5b92915050565b7f4e487b7100000000000000000000000000000000000000000000000000000000600052600160045260246000fd5b60006109bd826107c7565b91506109c8836107c7565b92508282019050808211156109e0576109df610920565b5b9291505056fea26469706673582212201eb824dd083b4dcaadba9a065ce9ee997a7f26bf2375aa8d718912548500b7c164736f6c63430008130033",
					"opcodes": "PUSH1 0x80 PUSH1 0x40 MSTORE CALLVALUE DUP1 ISZERO PUSH2 0x10 JUMPI PUSH1 0x0 DUP1 REVERT JUMPDEST POP PUSH2 0xA1C DUP1 PUSH2 0x20 PUSH1 0x0 CODECOPY PUSH1 0x0 RETURN INVALID PUSH1 0x80 PUSH1 0x40 MSTORE PUSH1 0x4 CALLDATASIZE LT PUSH2 0x43 JUMPI PUSH1 0x0 CALLDATALOAD PUSH1 0xE0 SHR DUP1 PUSH4 0x12065FE0 EQ PUSH2 0x76 JUMPI DUP1 PUSH4 0x4792B098 EQ PUSH2 0xA1 JUMPI DUP1 PUSH4 0x720409D9 EQ PUSH2 0xCA JUMPI DUP1 PUSH4 0xF08E362F EQ PUSH2 0xD4 JUMPI PUSH2 0x44 JUMP JUMPDEST JUMPDEST PUSH1 0x40 MLOAD PUSH32 0x41CC6B2100000000000000000000000000000000000000000000000000000000 DUP2 MSTORE PUSH1 0x4 ADD PUSH1 0x40 MLOAD DUP1 SWAP2 SUB SWAP1 REVERT JUMPDEST CALLVALUE DUP1 ISZERO PUSH2 0x82 JUMPI PUSH1 0x0 DUP1 REVERT JUMPDEST POP PUSH2 0x8B PUSH2 0xFD JUMP JUMPDEST PUSH1 0x40 MLOAD PUSH2 0x98 SWAP2 SWAP1 PUSH2 0x7E0 JUMP JUMPDEST PUSH1 0x40 MLOAD DUP1 SWAP2 SUB SWAP1 RETURN JUMPDEST CALLVALUE DUP1 ISZERO PUSH2 0xAD JUMPI PUSH1 0x0 DUP1 REVERT JUMPDEST POP PUSH2 0xC8 PUSH1 0x4 DUP1 CALLDATASIZE SUB DUP2 ADD SWAP1 PUSH2 0xC3 SWAP2 SWAP1 PUSH2 0x82C JUMP JUMPDEST PUSH2 0x146 JUMP JUMPDEST STOP JUMPDEST PUSH2 0xD2 PUSH2 0x38D JUMP JUMPDEST STOP JUMPDEST CALLVALUE DUP1 ISZERO PUSH2 0xE0 JUMPI PUSH1 0x0 DUP1 REVERT JUMPDEST POP PUSH2 0xFB PUSH1 0x4 DUP1 CALLDATASIZE SUB DUP2 ADD SWAP1 PUSH2 0xF6 SWAP2 SWAP1 PUSH2 0x8B7 JUMP JUMPDEST PUSH2 0x4D8 JUMP JUMPDEST STOP JUMPDEST PUSH1 0x0 DUP1 PUSH1 0x0 CALLER PUSH20 0xFFFFFFFFFFFFFFFFFFFFFFFFFFFFFFFFFFFFFFFF AND PUSH20 0xFFFFFFFFFFFFFFFFFFFFFFFFFFFFFFFFFFFFFFFF AND DUP2 MSTORE PUSH1 0x20 ADD SWAP1 DUP2 MSTORE PUSH1 0x20 ADD PUSH1 0x0 KECCAK256 PUSH1 0x0 ADD SLOAD SWAP1 POP SWAP1 JUMP JUMPDEST DUP1 PUSH1 0x0 DUP1 PUSH1 0x0 CALLER PUSH20 0xFFFFFFFFFFFFFFFFFFFFFFFFFFFFFFFFFFFFFFFF AND PUSH20 0xFFFFFFFFFFFFFFFFFFFFFFFFFFFFFFFFFFFFFFFF AND DUP2 MSTORE PUSH1 0x20 ADD SWAP1 DUP2 MSTORE PUSH1 0x20 ADD PUSH1 0x0 KECCAK256 PUSH1 0x0 ADD SLOAD SWAP1 POP DUP1 DUP3 GT ISZERO PUSH2 0x1D4 JUMPI DUP2 DUP2 PUSH1 0x40 MLOAD PUSH32 0x1B4D8E6200000000000000000000000000000000000000000000000000000000 DUP2 MSTORE PUSH1 0x4 ADD PUSH2 0x1CB SWAP3 SWAP2 SWAP1 PUSH2 0x8F7 JUMP JUMPDEST PUSH1 0x40 MLOAD DUP1 SWAP2 SUB SWAP1 REVERT JUMPDEST PUSH1 0x0 DUP1 PUSH1 0x0 CALLER PUSH20 0xFFFFFFFFFFFFFFFFFFFFFFFFFFFFFFFFFFFFFFFF AND PUSH20 0xFFFFFFFFFFFFFFFFFFFFFFFFFFFFFFFFFFFFFFFF AND DUP2 MSTORE PUSH1 0x20 ADD SWAP1 DUP2 MSTORE PUSH1 0x20 ADD PUSH1 0x0 KECCAK256 PUSH1 0x0 ADD SLOAD SWAP1 POP DUP4 PUSH1 0x0 DUP1 CALLER PUSH20 0xFFFFFFFFFFFFFFFFFFFFFFFFFFFFFFFFFFFFFFFF AND PUSH20 0xFFFFFFFFFFFFFFFFFFFFFFFFFFFFFFFFFFFFFFFF AND DUP2 MSTORE PUSH1 0x20 ADD SWAP1 DUP2 MSTORE PUSH1 0x20 ADD PUSH1 0x0 KECCAK256 PUSH1 0x0 ADD PUSH1 0x0 DUP3 DUP3 SLOAD PUSH2 0x26B SWAP2 SWAP1 PUSH2 0x94F JUMP JUMPDEST SWAP3 POP POP DUP2 SWAP1 SSTORE POP CALLER PUSH20 0xFFFFFFFFFFFFFFFFFFFFFFFFFFFFFFFFFFFFFFFF AND PUSH2 0x8FC DUP6 SWAP1 DUP2 ISZERO MUL SWAP1 PUSH1 0x40 MLOAD PUSH1 0x0 PUSH1 0x40 MLOAD DUP1 DUP4 SUB DUP2 DUP6 DUP9 DUP9 CALL SWAP4 POP POP POP POP PUSH2 0x2DD JUMPI PUSH1 0x40 MLOAD PUSH32 0xBF961A2800000000000000000000000000000000000000000000000000000000 DUP2 MSTORE PUSH1 0x4 ADD PUSH1 0x40 MLOAD DUP1 SWAP2 SUB SWAP1 REVERT JUMPDEST CALLER PUSH20 0xFFFFFFFFFFFFFFFFFFFFFFFFFFFFFFFFFFFFFFFF AND PUSH32 0x74A9F05E9C64B5C8E0C1B43CAEAAF64C988E559DE8F4C701968DE05F8AA7A4D7 DUP6 PUSH1 0x40 MLOAD PUSH2 0x323 SWAP2 SWAP1 PUSH2 0x7E0 JUMP JUMPDEST PUSH1 0x40 MLOAD DUP1 SWAP2 SUB SWAP1 LOG2 PUSH1 0x0 DUP1 CALLER PUSH20 0xFFFFFFFFFFFFFFFFFFFFFFFFFFFFFFFFFFFFFFFF AND PUSH20 0xFFFFFFFFFFFFFFFFFFFFFFFFFFFFFFFFFFFFFFFF AND DUP2 MSTORE PUSH1 0x20 ADD SWAP1 DUP2 MSTORE PUSH1 0x20 ADD PUSH1 0x0 KECCAK256 PUSH1 0x0 ADD SLOAD DUP5 DUP3 PUSH2 0x379 SWAP2 SWAP1 PUSH2 0x94F JUMP JUMPDEST EQ PUSH2 0x387 JUMPI PUSH2 0x386 PUSH2 0x983 JUMP JUMPDEST JUMPDEST POP POP POP POP JUMP JUMPDEST PUSH1 0x0 DUP1 PUSH1 0x0 CALLER PUSH20 0xFFFFFFFFFFFFFFFFFFFFFFFFFFFFFFFFFFFFFFFF AND PUSH20 0xFFFFFFFFFFFFFFFFFFFFFFFFFFFFFFFFFFFFFFFF AND DUP2 MSTORE PUSH1 0x20 ADD SWAP1 DUP2 MSTORE PUSH1 0x20 ADD PUSH1 0x0 KECCAK256 PUSH1 0x0 ADD SLOAD SWAP1 POP CALLVALUE PUSH1 0x0 DUP1 CALLER PUSH20 0xFFFFFFFFFFFFFFFFFFFFFFFFFFFFFFFFFFFFFFFF AND PUSH20 0xFFFFFFFFFFFFFFFFFFFFFFFFFFFFFFFFFFFFFFFF AND DUP2 MSTORE PUSH1 0x20 ADD SWAP1 DUP2 MSTORE PUSH1 0x20 ADD PUSH1 0x0 KECCAK256 PUSH1 0x0 ADD PUSH1 0x0 DUP3 DUP3 SLOAD PUSH2 0x424 SWAP2 SWAP1 PUSH2 0x9B2 JUMP JUMPDEST SWAP3 POP POP DUP2 SWAP1 SSTORE POP CALLER PUSH20 0xFFFFFFFFFFFFFFFFFFFFFFFFFFFFFFFFFFFFFFFF AND PUSH32 0x1810B37CC45C862015500EFC280F1229C486A31E8296A6019608848594A5C030 CALLVALUE PUSH1 0x40 MLOAD PUSH2 0x471 SWAP2 SWAP1 PUSH2 0x7E0 JUMP JUMPDEST PUSH1 0x40 MLOAD DUP1 SWAP2 SUB SWAP1 LOG2 PUSH1 0x0 DUP1 CALLER PUSH20 0xFFFFFFFFFFFFFFFFFFFFFFFFFFFFFFFFFFFFFFFF AND PUSH20 0xFFFFFFFFFFFFFFFFFFFFFFFFFFFFFFFFFFFFFFFF AND DUP2 MSTORE PUSH1 0x20 ADD SWAP1 DUP2 MSTORE PUSH1 0x20 ADD PUSH1 0x0 KECCAK256 PUSH1 0x0 ADD SLOAD CALLVALUE DUP3 PUSH2 0x4C7 SWAP2 SWAP1 PUSH2 0x9B2 JUMP JUMPDEST EQ PUSH2 0x4D5 JUMPI PUSH2 0x4D4 PUSH2 0x983 JUMP JUMPDEST JUMPDEST POP JUMP JUMPDEST DUP2 PUSH1 0x0 DUP1 PUSH1 0x0 CALLER PUSH20 0xFFFFFFFFFFFFFFFFFFFFFFFFFFFFFFFFFFFFFFFF AND PUSH20 0xFFFFFFFFFFFFFFFFFFFFFFFFFFFFFFFFFFFFFFFF AND DUP2 MSTORE PUSH1 0x20 ADD SWAP1 DUP2 MSTORE PUSH1 0x20 ADD PUSH1 0x0 KECCAK256 PUSH1 0x0 ADD SLOAD SWAP1 POP DUP1 DUP3 GT ISZERO PUSH2 0x566 JUMPI DUP2 DUP2 PUSH1 0x40 MLOAD PUSH32 0x1B4D8E6200000000000000000000000000000000000000000000000000000000 DUP2 MSTORE PUSH1 0x4 ADD PUSH2 0x55D SWAP3 SWAP2 SWAP1 PUSH2 0x8F7 JUMP JUMPDEST PUSH1 0x40 MLOAD DUP1 SWAP2 SUB SWAP1 REVERT JUMPDEST PUSH1 0x0 DUP1 PUSH1 0x0 CALLER PUSH20 0xFFFFFFFFFFFFFFFFFFFFFFFFFFFFFFFFFFFFFFFF AND PUSH20 0xFFFFFFFFFFFFFFFFFFFFFFFFFFFFFFFFFFFFFFFF AND DUP2 MSTORE PUSH1 0x20 ADD SWAP1 DUP2 MSTORE PUSH1 0x20 ADD PUSH1 0x0 KECCAK256 PUSH1 0x0 ADD SLOAD SWAP1 POP PUSH1 0x0 DUP1 PUSH1 0x0 DUP7 PUSH20 0xFFFFFFFFFFFFFFFFFFFFFFFFFFFFFFFFFFFFFFFF AND PUSH20 0xFFFFFFFFFFFFFFFFFFFFFFFFFFFFFFFFFFFFFFFF AND DUP2 MSTORE PUSH1 0x20 ADD SWAP1 DUP2 MSTORE PUSH1 0x20 ADD PUSH1 0x0 KECCAK256 PUSH1 0x0 ADD SLOAD SWAP1 POP DUP6 PUSH1 0x0 DUP1 CALLER PUSH20 0xFFFFFFFFFFFFFFFFFFFFFFFFFFFFFFFFFFFFFFFF AND PUSH20 0xFFFFFFFFFFFFFFFFFFFFFFFFFFFFFFFFFFFFFFFF AND DUP2 MSTORE PUSH1 0x20 ADD SWAP1 DUP2 MSTORE PUSH1 0x20 ADD PUSH1 0x0 KECCAK256 PUSH1 0x0 ADD PUSH1 0x0 DUP3 DUP3 SLOAD PUSH2 0x643 SWAP2 SWAP1 PUSH2 0x94F JUMP JUMPDEST SWAP3 POP POP DUP2 SWAP1 SSTORE POP DUP6 PUSH1 0x0 DUP1 DUP8 PUSH20 0xFFFFFFFFFFFFFFFFFFFFFFFFFFFFFFFFFFFFFFFF AND PUSH20 0xFFFFFFFFFFFFFFFFFFFFFFFFFFFFFFFFFFFFFFFF AND DUP2 MSTORE PUSH1 0x20 ADD SWAP1 DUP2 MSTORE PUSH1 0x20 ADD PUSH1 0x0 KECCAK256 PUSH1 0x0 ADD PUSH1 0x0 DUP3 DUP3 SLOAD PUSH2 0x69B SWAP2 SWAP1 PUSH2 0x9B2 JUMP JUMPDEST SWAP3 POP POP DUP2 SWAP1 SSTORE POP DUP5 PUSH20 0xFFFFFFFFFFFFFFFFFFFFFFFFFFFFFFFFFFFFFFFF AND CALLER PUSH20 0xFFFFFFFFFFFFFFFFFFFFFFFFFFFFFFFFFFFFFFFF AND PUSH32 0x6F3683305F9776C3358A0FCE2F112AA29B09A8FDD6B23665785B6B74183F20EA DUP9 PUSH1 0x40 MLOAD PUSH2 0x6FF SWAP2 SWAP1 PUSH2 0x7E0 JUMP JUMPDEST PUSH1 0x40 MLOAD DUP1 SWAP2 SUB SWAP1 LOG3 PUSH1 0x0 DUP1 CALLER PUSH20 0xFFFFFFFFFFFFFFFFFFFFFFFFFFFFFFFFFFFFFFFF AND PUSH20 0xFFFFFFFFFFFFFFFFFFFFFFFFFFFFFFFFFFFFFFFF AND DUP2 MSTORE PUSH1 0x20 ADD SWAP1 DUP2 MSTORE PUSH1 0x20 ADD PUSH1 0x0 KECCAK256 PUSH1 0x0 ADD SLOAD DUP7 DUP4 PUSH2 0x755 SWAP2 SWAP1 PUSH2 0x94F JUMP JUMPDEST EQ PUSH2 0x763 JUMPI PUSH2 0x762 PUSH2 0x983 JUMP JUMPDEST JUMPDEST PUSH1 0x0 DUP1 DUP7 PUSH20 0xFFFFFFFFFFFFFFFFFFFFFFFFFFFFFFFFFFFFFFFF AND PUSH20 0xFFFFFFFFFFFFFFFFFFFFFFFFFFFFFFFFFFFFFFFF AND DUP2 MSTORE PUSH1 0x20 ADD SWAP1 DUP2 MSTORE PUSH1 0x20 ADD PUSH1 0x0 KECCAK256 PUSH1 0x0 ADD SLOAD DUP7 DUP3 PUSH2 0x7B1 SWAP2 SWAP1 PUSH2 0x9B2 JUMP JUMPDEST EQ PUSH2 0x7BF JUMPI PUSH2 0x7BE PUSH2 0x983 JUMP JUMPDEST JUMPDEST POP POP POP POP POP POP JUMP JUMPDEST PUSH1 0x0 DUP2 SWAP1 POP SWAP2 SWAP1 POP JUMP JUMPDEST PUSH2 0x7DA DUP2 PUSH2 0x7C7 JUMP JUMPDEST DUP3 MSTORE POP POP JUMP JUMPDEST PUSH1 0x0 PUSH1 0x20 DUP3 ADD SWAP1 POP PUSH2 0x7F5 PUSH1 0x0 DUP4 ADD DUP5 PUSH2 0x7D1 JUMP JUMPDEST SWAP3 SWAP2 POP POP JUMP JUMPDEST PUSH1 0x0 DUP1 REVERT JUMPDEST PUSH2 0x809 DUP2 PUSH2 0x7C7 JUMP JUMPDEST DUP2 EQ PUSH2 0x814 JUMPI PUSH1 0x0 DUP1 REVERT JUMPDEST POP JUMP JUMPDEST PUSH1 0x0 DUP2 CALLDATALOAD SWAP1 POP PUSH2 0x826 DUP2 PUSH2 0x800 JUMP JUMPDEST SWAP3 SWAP2 POP POP JUMP JUMPDEST PUSH1 0x0 PUSH1 0x20 DUP3 DUP5 SUB SLT ISZERO PUSH2 0x842 JUMPI PUSH2 0x841 PUSH2 0x7FB JUMP JUMPDEST JUMPDEST PUSH1 0x0 PUSH2 0x850 DUP5 DUP3 DUP6 ADD PUSH2 0x817 JUMP JUMPDEST SWAP2 POP POP SWAP3 SWAP2 POP POP JUMP JUMPDEST PUSH1 0x0 PUSH20 0xFFFFFFFFFFFFFFFFFFFFFFFFFFFFFFFFFFFFFFFF DUP3 AND SWAP1 POP SWAP2 SWAP1 POP JUMP JUMPDEST PUSH1 0x0 PUSH2 0x884 DUP3 PUSH2 0x859 JUMP JUMPDEST SWAP1 POP SWAP2 SWAP1 POP JUMP JUMPDEST PUSH2 0x894 DUP2 PUSH2 0x879 JUMP JUMPDEST DUP2 EQ PUSH2 0x89F JUMPI PUSH1 0x0 DUP1 REVERT JUMPDEST POP JUMP JUMPDEST PUSH1 0x0 DUP2 CALLDATALOAD SWAP1 POP PUSH2 0x8B1 DUP2 PUSH2 0x88B JUMP JUMPDEST SWAP3 SWAP2 POP POP JUMP JUMPDEST PUSH1 0x0 DUP1 PUSH1 0x40 DUP4 DUP6 SUB SLT ISZERO PUSH2 0x8CE JUMPI PUSH2 0x8CD PUSH2 0x7FB JUMP JUMPDEST JUMPDEST PUSH1 0x0 PUSH2 0x8DC DUP6 DUP3 DUP7 ADD PUSH2 0x817 JUMP JUMPDEST SWAP3 POP POP PUSH1 0x20 PUSH2 0x8ED DUP6 DUP3 DUP7 ADD PUSH2 0x8A2 JUMP JUMPDEST SWAP2 POP POP SWAP3 POP SWAP3 SWAP1 POP JUMP JUMPDEST PUSH1 0x0 PUSH1 0x40 DUP3 ADD SWAP1 POP PUSH2 0x90C PUSH1 0x0 DUP4 ADD DUP6 PUSH2 0x7D1 JUMP JUMPDEST PUSH2 0x919 PUSH1 0x20 DUP4 ADD DUP5 PUSH2 0x7D1 JUMP JUMPDEST SWAP4 SWAP3 POP POP POP JUMP JUMPDEST PUSH32 0x4E487B7100000000000000000000000000000000000000000000000000000000 PUSH1 0x0 MSTORE PUSH1 0x11 PUSH1 0x4 MSTORE PUSH1 0x24 PUSH1 0x0 REVERT JUMPDEST PUSH1 0x0 PUSH2 0x95A DUP3 PUSH2 0x7C7 JUMP JUMPDEST SWAP2 POP PUSH2 0x965 DUP4 PUSH2 0x7C7 JUMP JUMPDEST SWAP3 POP DUP3 DUP3 SUB SWAP1 POP DUP2 DUP2 GT ISZERO PUSH2 0x97D JUMPI PUSH2 0x97C PUSH2 0x920 JUMP JUMPDEST JUMPDEST SWAP3 SWAP2 POP POP JUMP JUMPDEST PUSH32 0x4E487B7100000000000000000000000000000000000000000000000000000000 PUSH1 0x0 MSTORE PUSH1 0x1 PUSH1 0x4 MSTORE PUSH1 0x24 PUSH1 0x0 REVERT JUMPDEST PUSH1 0x0 PUSH2 0x9BD DUP3 PUSH2 0x7C7 JUMP JUMPDEST SWAP2 POP PUSH2 0x9C8 DUP4 PUSH2 0x7C7 JUMP JUMPDEST SWAP3 POP DUP3 DUP3 ADD SWAP1 POP DUP1 DUP3 GT ISZERO PUSH2 0x9E0 JUMPI PUSH2 0x9DF PUSH2 0x920 JUMP JUMPDEST JUMPDEST SWAP3 SWAP2 POP POP JUMP INVALID LOG2 PUSH5 0x6970667358 0x22 SLT KECCAK256 0x1E 0xB8 0x24 0xDD ADDMOD EXTCODESIZE 0x4D 0xCA 0xAD 0xBA SWAP11 MOD 0x5C 0xE9 0xEE SWAP10 PUSH27 0x7F26BF2375AA8D718912548500B7C164736F6C6343000813003300 "
				},
				"gasEstimates": {
					"creation": {
						"codeDepositCost": "517600",
						"executionCost": "549",
						"totalCost": "518149"
					},
					"external": {
						"": "196",
						"depositToAccount()": "infinite",
						"getBalance()": "2510",
						"transferFunds(uint256,address)": "infinite",
						"withdrawFromAccount(uint256)": "infinite"
					}
				},
				"methodIdentifiers": {
					"depositToAccount()": "720409d9",
					"getBalance()": "12065fe0",
					"transferFunds(uint256,address)": "f08e362f",
					"withdrawFromAccount(uint256)": "4792b098"
				}
			},
			"storageLayout": {
				"storage": [
					{
						"astId": 16,
						"contract": "SmartWallet.sol:SmartWallet",
						"label": "Accounts",
						"offset": 0,
						"slot": "0",
						"type": "t_mapping(t_address,t_struct(Account)19_storage)"
					}
				],
				"types": {
					"t_address": {
						"encoding": "inplace",
						"label": "address",
						"numberOfBytes": "20"
					},
					"t_mapping(t_address,t_struct(Account)19_storage)": {
						"encoding": "mapping",
						"key": "t_address",
						"label": "mapping(address => struct SmartWallet.Account)",
						"numberOfBytes": "32",
						"value": "t_struct(Account)19_storage"
					},
					"t_struct(Account)19_storage": {
						"encoding": "inplace",
						"label": "struct SmartWallet.Account",
						"members": [
							{
								"astId": 18,
								"contract": "SmartWallet.sol:SmartWallet",
								"label": "balance",
								"offset": 0,
								"slot": "0",
								"type": "t_uint256"
							}
						],
						"numberOfBytes": "32"
					},
					"t_uint256": {
						"encoding": "inplace",
						"label": "uint256",
						"numberOfBytes": "32"
					}
				}
			},
			"userdoc": {
				"kind": "user",
				"methods": {},
				"version": 1
			}
		}
	}
}